:020000040800F2
:100000000020002039020008890200088902000847
:1000100000000000000000000000000000000000E0
:10002000000000000000000000000000890200083D
:100030000000000000000000890200088507000899
:100040008902000889020008890200088902000864
:100050008902000889020008890200088902000854
:1000600000000000890200088902000889020008D7
:1000700089020008890200080000000089020008C7
:100080000000000000000000000000000000000070
:100090009907000800000000890200088902000892
:1000A00000000000890200080000000000000000BD
:1000B000890200088902000800000000000000001A
:1000C00010B5064C2378002B07D1054B002B02D02E
:1000D000044800E000BF0123237010BD3404002059
:1000E000000000002C270008084B10B5002B03D09F
:1000F0000749084800E000BF07480368002B00D10B
:1001000010BD064B002BFBD09847F9E7000000001C
:10011000380400202C2700083404002000000000D0
:10012000002243088B4274D303098B425FD3030A36
:100130008B4244D3030B8B4228D3030C8B420DD349
:10014000FF22090212BA030C8B4202D312120902D7
:1001500065D0030B8B4219D300E0090AC30B8B4215
:1001600001D3CB03C01A5241830B8B4201D38B03C3
:10017000C01A5241430B8B4201D34B03C01A524168
:10018000030B8B4201D30B03C01A5241C30A8B42AB
:1001900001D3CB02C01A5241830A8B4201D38B0296
:1001A000C01A5241430A8B4201D34B02C01A52413A
:1001B000030A8B4201D30B02C01A5241CDD2C309AC
:1001C0008B4201D3CB01C01A524183098B4201D328
:1001D0008B01C01A524143098B4201D34B01C01A13
:1001E000524103098B4201D30B01C01A5241C3088B
:1001F0008B4201D3CB00C01A524183088B4201D3FA
:100200008B00C01A524143088B4201D34B00C01AE5
:100210005241411A00D20146524110467047FFE751
:1002200001B5002000F006F802BDC0460029F7D055
:1002300076E770477047C0460D488546002103E0C9
:100240000C4B5B58435004310B480C4B42189A42FC
:10025000F6D30B4A02E0002313600432094B9A42A2
:10026000F9D300F0A5FA02F091F900F00FF8FEE7DB
:100270000020002080270008000000203404002017
:1002800034040020E8040020FEE7000080B500AF41
:1002900000F0CCFA00F034F800F09AF900F0A2F87F
:1002A00000F002F9134B0021180001F0A1FB00221D
:1002B0000021142000F0C2FB142000F0D5FB0E4BEF
:1002C0000821180000F09FFDFA239B00180000F0A1
:1002D000F5FA0A4B0021180001F068FBFA239B0095
:1002E000180000F0EBFA054B0021180001F044FB68
:1002F000E5E7C046880400200004005050040020B8
:1003000080B592B000AF344B334A126833490A408B
:10031000802109010A431A601423FB1802221A6083
:100320001423FB180122DA601423FB1810221A612F
:100330001423FB1802225A621423FB1800229A622B
:100340001423FB188022D202DA621423FB188022C5
:10035000D2031A631423FB18180000F067FD031E74
:1003600004D01F4B9021180000F09CF93B000F2295
:100370001A603B0003225A603B0000229A603B0057
:100380000022DA603B0000221A613B0001211800C4
:1003900001F098F8031E04D0114B9D21180000F0C5
:1003A00081F901F027FA0200FA2399001000FFF703
:1003B000B7FE0300180000F067FB042000F072FB9A
:1003C00001235B4200220021180000F037FBC046E9
:1003D000BD4612B080BDC04600700040FFE7FFFF81
:1003E0004427000880B586B000AF2D4B8022D2058F
:1003F0001A602B4B00225A60294B00229A60284B2E
:10040000C8225200DA60264B00221A61244B0122D6
:100410001A75234B180001F083FA031E04D0214BF8
:10042000B921180000F03EF91023FB1800221A60D1
:100430001023FB1800225A601023FA18184B1100E1
:10044000180002F05FF8031E04D0164BC0211800FC
:1004500000F028F93B0030221A603B0000225A606D
:100460003B0000229A603B000022DA6039000C4B0E
:100470000022180001F0EDFB031E04D0094BC82137
:10048000180000F00FF9064B180000F051F9044B6A
:100490000021180001F070FAC046BD4606B080BDCC
:1004A000500400204427000880B590B000AF444BB2
:1004B000434A526B04210A435A63424B424A1A6030
:1004C000404B00225A603F4B00229A603D4B9622DF
:1004D000D201DA603B4B00221A613A4B180001F05E
:1004E000EBF9031E04D0394BDF21180000F0DAF8D5
:1004F0003023FB18802252011A603023FA18314B46
:100500001100180001F0F4FB031E04D02F4BE4216E
:10051000180000F0C7F82B4B180001F001FA031E79
:1005200004D02A4BE821180000F0BCF81C23FB186B
:1005300000221A601C23FB1800225A601C23FA18A0
:10054000204B1100180001F0B3FC031E04D01F4B18
:10055000EE21180000F0A6F81423FB1800221A6000
:100560001423FB1800225A601423FA18154B1100AB
:10057000180001F0C7FF031E04D0144BF52118002A
:1005800000F090F83B1D00221A603B1D00225A60CB
:100590003B1D00229A603B1D0022DA60391D094B89
:1005A0000022180001F055FB031E04D0074BFE216A
:1005B000180000F077F8C046BD4610B080BDC046B8
:1005C0000010024088040020000801404427000871
:1005D00080B588B000AF304B2F4AD26A04210A435D
:1005E000DA622D4BDB6A04221340BB60BB682A4BE6
:1005F000294AD26A01210A43DA62274BDB6A0122C7
:1006000013407B607B68244B234AD26A02210A4351
:10061000DA62214BDB6A022213403B603B681F4BCE
:1006200000220821180000F0D1FB0C23FB181C4A03
:100630001A600C23FB1802225A600C23FB180022BC
:100640009A600C23FB180322DA600C23FB180422A7
:100650001A610C23FA18A023DB051100180000F022
:1006600047FA0C23FB1808221A600C23FB180122FE
:100670005A600C23FB1800229A600C23FB180022FE
:10068000DA600C23FB18054A1900100000F030FA5C
:10069000C046BD4608B080BD0010024000040050B6
:1006A0000480000080B582B000AF78603960FEE75A
:1006B00080B500AF124B124A526B01210A435A63B4
:1006C0000F4B0F4A926B802149050A439A63052319
:1006D0005B4200220021180000F0B0F902235B42C7
:1006E00000220021180000F0A9F901235B4200223A
:1006F0000021180000F0A2F9C046BD4680BDC046EA
:100700000010024080B582B000AF78607B681A6844
:100710008023DB059A4205D1044B044A926B0121E8
:100720000A439A63C046BD4602B080BD0010024035
:1007300080B588B000AF78607B681A688023DB05DD
:100740009A421BD10C23FB1801221A600C23FB18C0
:1007500002225A600C23FB1800229A600C23FB181B
:100760000022DA600C23FB1802221A610C23FA180B
:10077000A023DB051100180000F0BAF9C046BD4601
:1007800008B080BD80B500AF00F082F800F0A4F999
:10079000C046BD4680BD000080B500AF034B1800C9
:1007A00001F06FF9C046BD4680BDC04688040020F8
:1007B00080B500AF174B174A1268802149000A43E1
:1007C0001A60144B134AD26813490A40DA60114B7D
:1007D000104A126811490A401A600E4B0D4A92687D
:1007E00001218A439A600B4B0A4A12680C490A405D
:1007F0001A60084B074AD2680A490A40DA60054B7A
:1008000000221A61084B802212059A60C046BD463C
:1008100080BDC046001002400C40FF88F6FFF6FE87
:10082000FFFFFBFFFFFF02FF00ED00E080B500AF20
:10083000074B074A126840210A431A60002000F063
:1008400009F8FFF735FF00231800BD4680BDC046FC
:100850000020024080B582B000AF78600B4B1A6870
:10086000FA2399001000FFF75BFC0300180000F06A
:100870000BF9796801235B420022180000F0DEF8D2
:1008800000231800BD4602B080BDC0460000002015
:1008900080B500AF034B1B685A1C024B1A60C04660
:1008A000BD4680BDC004002080B500AF024B1B6870
:1008B0001800BD4680BDC046C004002080B584B08D
:1008C00000AF78600023FB60FFF7EEFF0300FB60E2
:1008D000C046FFF7E9FF0200FB68D21A7B689A4224
:1008E000F7D3C046BD4604B080BD000080B582B0DD
:1008F00000AF0200FB1D1A70064BFA1D12781100A2
:100900001F220A40012191400A001A60C046BD46DC
:1009100002B080BD00E100E0B0B582B000AF0200DF
:100920003960FB1D1A70FB1D1B787F2B32D92F4CB1
:10093000FB1D1B781A000F231340083B99082B4A14
:10094000FB1D1B7818000F230340083B9B08063350
:100950009B00D31804331B68FA1D12781000032281
:100960000240D200FF2090400200D2431A403B6870
:100970009B01FF201840FB1D1B781D0003232B400B
:10098000DB00984003001A438B1D9B00E3180433DF
:100990001A6027E0164CFB1D1B785BB29B081449BC
:1009A000FA1D127852B29208C03292005258F91DC4
:1009B0000978080003210140C900FF208840010098
:1009C000C94311403A689201FF201040FA1D127885
:1009D000150003222A40D200904002000A43C0338F
:1009E0009B001A51C046BD4602B0B0BD00ED00E00C
:1009F00000E100E080B582B000AF78607B68013B29
:100A00000C4A934201D9012310E00B4B7A68013A5A
:100A10005A6001235B4203211800FFF77DFF064B5C
:100A200000229A60044B07221A6000231800BD467A
:100A300002B080BDFFFFFF0010E000E080B584B091
:100A400000AFB9607A600F23FB18021C1A70BA68F5
:100A50000F23FB181B785BB211001800FFF75CFF37
:100A6000C046BD4604B080BD80B582B000AF020074
:100A7000FB1D1A70FB1D1B785BB21800FFF736FFD9
:100A8000C046BD4602B080BD80B582B000AF786080
:100A90007B681800FFF7AEFF03001800BD4602B0E8
:100AA00080BD000080B582B000AF78607B68042B09
:100AB00006D1084B074A126804210A431A6005E070
:100AC000044B044A126804218A431A60C046BD469A
:100AD00002B080BD10E000E080B500AF00F003F888
:100AE000C046BD4680BD80B500AFC046BD4680BD96
:100AF00080B586B000AF7860396000237B61002349
:100B0000FB6000233B6149E13B681B6801217A6976
:100B100091400A001340FB60FB68002B00D13AE1D2
:100B20003B685B68022B03D03B685B68122B23D1C8
:100B30007B69DA087B6808329200D3583B617B6995
:100B4000072213409B000F229A401300DA433B69AF
:100B500013403B613B681A697B6907210B409B008E
:100B60009A4013003A6913433B617B69DA087B685A
:100B7000083292003969D1503B685B68012B0BD079
:100B80003B685B68022B07D03B685B68112B03D086
:100B90003B685B68122B30D17B689B683B617B694B
:100BA0005B0003229A401300DA433B6913403B6128
:100BB0003B68DA687B695B009A4013003A6913432B
:100BC0003B617B683A699A607B685B683B610122A4
:100BD0007B699A401300DA433B6913403B613B68F1
:100BE0005B681B0901221A407B699A4013003A692D
:100BF00013433B617B683A695A607B681B683B61C1
:100C00007B695B0003229A401300DA433B6913407F
:100C10003B613B685B6803221A407B695B009A403A
:100C200013003A6913433B617B683A691A607B6839
:100C3000DB683B617B695B0003229A401300DA4367
:100C40003B6913403B613B689A687B695B009A4053
:100C500013003A6913433B617B683A69DA603B6889
:100C60005A6880235B05134000D194E0514B514AF0
:100C7000526B01210A435A634F4A7B699B08023336
:100C80009B009B583B617B69032213409B000F2212
:100C90009A401300DA433B6913403B617A68A02312
:100CA000DB059A4213D07B68444A93420DD07B689F
:100CB000434A934207D07B68424A934201D10523BD
:100CC00006E0062304E0022302E0012300E0002303
:100CD0007A6903210A40920093403A6913433B61C9
:100CE00035497B699B0802339B003A695A50364B61
:100CF0001B683B61FB68DA433B6913403B613B681F
:100D00005A6880235B02134003D03A69FB6813439F
:100D10003B612D4B3A691A602B4B5B683B61FB686A
:100D2000DA433B6913403B613B685A6880239B026E
:100D3000134003D03A69FB6813433B61224B3A6985
:100D40005A60214B9B683B61FB68DA433B69134067
:100D50003B613B685A6880235B03134003D03A69C8
:100D6000FB6813433B61184B3A699A60164BDB688A
:100D70003B61FB68DA433B6913403B613B685A685F
:100D800080239B03134003D03A69FB6813433B6104
:100D90000D4B3A69DA607B6901337B613B681A6805
:100DA0007B69DA40131E00D0AEE6C046BD4606B0F1
:100DB00080BDC04600100240000001400004005009
:100DC00000080050001C00500004014080B582B0B3
:100DD00000AF786008001100BB1C021C1A807B1C4D
:100DE0000A1C1A707B1C1B78002B04D0BB1C1A88B1
:100DF0007B689A6103E0BB1C1A887B689A62C046D4
:100E0000BD4602B080BD80B582B000AF78600A00F8
:100E1000BB1C1A807B685A69BB1C1B885A407B68C4
:100E20005A61C046BD4602B080BD000080B586B0A4
:100E300000AF786000233B617B681B680122134090
:100E400000D186E0C04BDB680C221340082B0ED08B
:100E5000BD4BDB680C2213400C2B15D1BA4BDA6862
:100E600080235B021A4080235B029A420CD1B64B6E
:100E70001A6880239B02134000D169E07B685B689D
:100E8000002B65D1012318E37B685A6880235B023D
:100E90009A4207D1AC4BAC4A1268802149020A43FE
:100EA0001A6027E07B685A68A023DB029A420ED1C1
:100EB000A54BA54A12688021C9020A431A60A24BB9
:100EC000A14A1268802149020A431A6012E09E4B2F
:100ED0009D4A12689D490A401A609B4B1A688023FC
:100EE0005B021340FB60FB68974B974A1268984976
:100EF0000A401A607B685B68002B14D0FFF7D4FCB3
:100F000003003B6108E0FFF7CFFC02003B69D31A06
:100F1000642B01D90323D0E28B4B1A6880239B02F8
:100F20001340F0D015E0FFF7BFFC03003B6108E081
:100F3000FFF7BAFC02003B69D31A642B01D90323E3
:100F4000BBE2814B1A6880239B021340F0D100E082
:100F5000C0467B681B680222134000D16CE07A4BCC
:100F6000DB680C221340042B0BD0774BDB680C2280
:100F700013400C2B1BD1744BDA6880235B021340A7
:100F800015D1714B1B680422134005D07B68DB68C8
:100F9000012B01D0012390E26B4A6B4B5B686D49DA
:100FA00019407B681B691B020B43536044E07B685C
:100FB000DB68002B27D0644A634B1B6809218B43F5
:100FC00019007B68DB680B431360FFF76DFC0300BF
:100FD0003B6108E0FFF768FC02003B69D31A022B73
:100FE00001D9032369E2584B1B6804221340F1D056
:100FF000554A554B5B68574919407B681B691B0272
:101000000B43536018E0504B4F4A126801218A434A
:101010001A60FFF749FC03003B6108E0FFF744FC5E
:1010200002003B69D31A022B01D9032345E2464B48
:101030001B6804221340F1D17B681B681022134007
:1010400000D1C3E0404BDB680C22134062D13E4B21
:101050001A6880239B00134005D07B689B69002B96
:1010600001D1012329E27B681A6A374B5968E023D2
:101070001B020B409A421CD97B681B6A180000F0C7
:10108000C3FB031E01D0012317E22F4A2E4B5B68DE
:10109000314919407B681B6A0B4353602A4A2A4B2B
:1010A0005B681B02190A7B68DB691B060B435360F4
:1010B0001BE0254A244B5B68274919407B681B6A63
:1010C0000B435360204A204B5B681B02190A7B6864
:1010D000DB691B060B4353607B681B6A180000F03A
:1010E00093FB031E01D00123E7E17B681B6A5B0BC6
:1010F0000133802212029A40134BDB681B090F2137
:101100000B401649CB5CDA40154B1A600020FFF704
:10111000A1FB5BE07B689B69002B3DD00A4B0A4A30
:101120001268802149000A431A60FFF7BDFB0300E3
:101130003B6117E0FFF7B8FB02003B69D31A022BB3
:1011400010D90323B9E1C04600100240FFFFFEFFA3
:10115000FFFFFBFFFFE0FFFFFF1FFFFF542700081B
:1011600000000020CA4B1A6880239B001340E1D086
:10117000C74AC74B5B68C74919407B681B6A0B436A
:101180005360C34AC24B5B681B02190A7B68DB6968
:101190001B060B43536019E0BD4BBD4A1268BE49A4
:1011A0000A401A60FFF780FB03003B6108E0FFF78D
:1011B0007BFB02003B69D31A022B01D903237CE19C
:1011C000B34B1A6880239B001340F0D17B681B68E7
:1011D0000822134036D07B685B69002B19D0AC4BDA
:1011E000AB4A126D01210A431A65FFF75DFB03004C
:1011F0003B6108E0FFF758FB02003B69D31A022B62
:1012000001D9032359E1A24B1B6D02221340F1D0F7
:1012100018E09F4B9E4A126D01218A431A65FFF721
:1012200043FB03003B6108E0FFF73EFB02003B6924
:10123000D31A022B01D903233FE1954B1B6D0222E8
:101240001340F1D17B681B680422134000D1AFE04A
:101250001723FB1800221A708D4B9A6B80235B05B5
:1012600013400AD18A4B8A4A926B802149050A436E
:101270009A631723FB1801221A70884B1A6880237F
:101280005B0013401AD1854B844A126880214900C3
:101290000A431A60FFF708FB03003B6108E0FFF711
:1012A00003FB02003B69D31A642B01D9032304E139
:1012B0007A4B1A6880235B001340F0D07B689A68F1
:1012C00080235B009A4207D1714B714A126D8021D5
:1012D00049000A431A6531E07B689B68002B0CD1FA
:1012E0006B4B6B4A126D6C490A401A65684B684A31
:1012F000126D6B490A401A6520E07B689A68A0234A
:10130000DB009A420ED1624B614A126D8021C90006
:101310000A431A655E4B5E4A126D802149000A43FA
:101320001A650BE05A4B5A4A126D5B490A401A651E
:10133000574B574A126D5A490A401A657B689B6899
:10134000002B15D0FFF7B0FA03003B6109E0FFF76F
:10135000ABFA02003B69D31A524A934201D90323E4
:10136000ABE04B4B1A6D80239B001340EFD014E091
:10137000FFF79AFA03003B6109E0FFF795FA0200D4
:101380003B69D31A474A934201D9032395E0404B66
:101390001A6D80239B001340EFD11723FB181B7895
:1013A000012B05D13A4B3A4A926B3F490A409A6366
:1013B0007B685B6A002B00D17EE0354BDB680C223A
:1013C00013400C2B00D175E07B685B6A022B44D183
:1013D0002F4B2F4A126835490A401A60FFF764FA0A
:1013E00003003B6108E0FFF75FFA02003B69D31A94
:1013F000022B01D9032360E0254B1A6880239B044C
:101400001340F0D1224A224BDB68294919407B68FE
:10141000986A7B68DB6A18437B681B6B03430B434A
:10142000D3601B4B1A4A1268802149040A431A6090
:10143000FFF73AFA03003B6108E0FFF735FA0200D4
:101440003B69D31A022B01D9032336E0104B1A68EB
:1014500080239B041340F0D02EE00D4B0C4A126801
:1014600012490A401A60FFF71FFA03003B6108E0C7
:10147000FFF71AFA02003B69D31A022B01D90323A2
:101480001BE0034B1A6880239B041340F0D113E048
:1014900000100240FF1FFFFFFFFEFFFF0070004033
:1014A000FFFBFFFF88130000FFFFFFEFFFFFFFFEC2
:1014B000FFFF02FF012300E000231800BD4606B035
:1014C00080BDC04680B584B000AF7860396000232D
:1014D000FB60824B1B6801221A403B689A4211D282
:1014E0007E4B7E4A126801218A4311003A680A4302
:1014F0001A607A4B1B6801221A403B689A4201D05D
:101500000123E6E07B681B680222134009D0744A7D
:10151000734BDB68F0218B4319007B689B680B439E
:10152000D3607B681B680122134000D189E07B688F
:101530005B68022B07D16A4B1A6880239B02134019
:1015400020D10123C5E07B685B68032B07D1644B86
:101550001A6880239B04134014D10123B9E07B68EF
:101560005B68012B06D15E4B1B680422134009D136
:101570000123AEE05A4B1A6880239B00134001D12F
:101580000123A6E0564A564BDB6803218B43190022
:101590007B685B680B43D360FFF786F90300FB6051
:1015A0007B685B68022B11D109E0FFF77DF902002F
:1015B000FB68D31A4B4A934201D9032389E0484B75
:1015C000DB680C221340082BEFD13AE07B685B68A4
:1015D000032B11D109E0FFF767F90200FB68D31A6A
:1015E000404A934201D9032373E03D4BDB680C2250
:1015F00013400C2BEFD124E07B685B68012B1BD1DF
:1016000009E0FFF751F90200FB68D31A354A93420B
:1016100001D903235DE0324BDB680C221340042B1D
:10162000EFD10EE0FFF740F90200FB68D31A2D4A14
:10163000934201D903234CE0294BDB680C22134071
:10164000F0D1264B1B6801221A403B689A4211D9FF
:10165000224B224A126801218A4311003A680A4348
:101660001A601E4B1B6801221A403B689A4201D047
:1016700001232EE07B681B680422134008D0184A1F
:10168000174BDB68184919407B68DB680B43D36054
:101690007B681B680822134009D0114A104BDB6895
:1016A000124919407B681B69DB000B43D36000F0D3
:1016B00023F801000A4BDB681B090F2213400C4A78
:1016C000D35C0A00DA400B4B1A600020FFF7C2F827
:1016D00000231800BD4604B080BDC0460020024073
:1016E0000010024088130000FFF8FFFFFFC7FFFF54
:1016F000542700080000002080B586B000AF00230A
:10170000FB600023BB6000237B6000237B61002320
:101710003B6000233B61324BDB68FB60FB680C22C3
:101720001340082B0ED00C2B0FD0042B45D12C4B83
:101730001B681022134002D02A4B3B614BE02A4B1E
:101740003B6148E0294B3B6145E0FB689B0C0F2265
:101750001340274AD35CBB60FB689B0D03221340F8
:1017600001337B601E4BDA6880235B02134009D093
:10177000BB681E4A534379681800FEF7D1FC03008A
:101780007B6117E0164B1B681022134009D0BB6821
:10179000144A534379681800FEF7C2FC03007B61CA
:1017A00008E0BB68104A534379681800FEF7B8FC9C
:1017B00003007B617B693B610DE0094B5B685B0B60
:1017C000072213403B603B680133802212029A409B
:1017D00013003B61C0463B691800BD4606B080BDA2
:1017E0000010024000093D000024F40000127A00BD
:1017F0006427000880B500AF024B1B681800BD4687
:1018000080BDC0460000002080B584B000AF786085
:101810000023FB600023BB60234BDB68F0221340F6
:101820002BD1214B9A6B80235B05134006D01F4BB5
:101830001A68C0235B011340FB6012E01A4B1A4A7E
:10184000926B802149050A439A63184B1A68C0239A
:101850005B011340FB60144B134A926B14490A401E
:101860009A63FA68C0235B019A4206D17A68C02362
:101870001B029A4201D10123BB600E4B0D4A126834
:1018800001218A431100BA680A431A60094B1B6898
:1018900001221A40BB689A4201D0012300E00023D4
:1018A0001800BD4604B080BD00100240007000402A
:1018B000FFFFFFEF0020024080B582B000AF7860EC
:1018C0007B68002B01D101231EE07B6835229B5CE5
:1018D000DBB2002B07D17B683422002199547B684E
:1018E000180000F015F87B683522022199547B68B6
:1018F0001A687B6804331900100000F03BFB7B681A
:1019000035220121995400231800BD4602B080BD44
:1019100080B582B000AF7860C046BD4602B080BDE1
:1019200080B582B000AF78607B68002B01D10123C5
:101930001EE07B6835229B5CDBB2002B07D17B6805
:101940003422002199547B681800FEF7DBFE7B6887
:101950003522022199547B681A687B680433190088
:10196000100000F007FB7B68352201219954002309
:101970001800BD4602B080BD80B582B000AF78606F
:1019800039607B681B6839680122180000F010FD7F
:101990007B681B687A681268126801210A431A6022
:1019A00000231800BD4602B080BD000080B582B0A3
:1019B00000AF786039607B681B68396800221800C6
:1019C00000F0F6FC7B681B681B6A084A134007D1CD
:1019D0007B681B687A681268126801218A431A6062
:1019E00000231800BD4602B080BDC04611110000A2
:1019F00080B582B000AF786039603B68042B11D0AD
:101A000002D8002B05D028E0082B14D00C2B1BD0BB
:101A100023E07B681B687A681268D26802210A4357
:101A2000DA601AE07B681B687A681268D268042161
:101A30000A43DA6011E07B681B687A681268D26832
:101A400008210A43DA6008E07B681B687A6812683C
:101A5000D26810210A43DA60C0467B681B68396887
:101A60000122180000F0A4FC7B681B687A681268E9
:101A7000126801210A431A6000231800BD4602B013
:101A800080BD80B582B000AF78607B681B681B6941
:101A900002221340022B24D17B681B68DB680222E0
:101AA0001340022B1DD17B681B68032252421A612E
:101AB0007B6801221A757B681B689B6903221340AF
:101AC00004D07B68180000F03DFA07E07B6818003E
:101AD00000F030FA7B68180000F03CFA7B680022C6
:101AE0001A757B681B681B6904221340042B25D1DF
:101AF0007B681B68DB6804221340042B1ED17B68C3
:101B00001B68052252421A617B6802221A757B68A3
:101B10001B689A69C0239B00134004D07B6818009F
:101B200000F010FA07E07B68180000F003FA7B6809
:101B3000180000F00FFA7B6800221A757B681B689A
:101B40001B6908221340082B24D17B681B68DB68C3
:101B500008221340082B1DD17B681B6809225242C2
:101B60001A617B6804221A757B681B68DB69032293
:101B7000134004D07B68180000F0E4F907E07B68AC
:101B8000180000F0D7F97B68180000F0E3F97B68D3
:101B900000221A757B681B681B6910221340102BEA
:101BA00025D17B681B68DB6810221340102B1ED1E7
:101BB0007B681B68112252421A617B6808221A75E1
:101BC0007B681B68DA69C0239B00134004D07B68E4
:101BD000180000F0B7F907E07B68180000F0AAF9D8
:101BE0007B68180000F0B6F97B6800221A757B68E4
:101BF0001B681B6901221340012B0FD17B681B68F6
:101C0000DB6801221340012B08D17B681B6802228C
:101C100052421A617B68180000F084F97B681B68E7
:101C20001B6940221340402B0FD17B681B68DB6887
:101C300040221340402B08D17B681B68412252424E
:101C40001A617B68180000F08DF9C046BD4602B0ED
:101C500080BD80B584B000AFF860B9607A60FB6881
:101C600034229B5C012B01D102233CE0FB6834222F
:101C700001219954FB683522022199547B68042B79
:101C800010D002D8002B05D024E0082B12D00C2B4A
:101C900018D01FE0FB681B68BA681100180000F03C
:101CA000C1F917E0FB681B68BA681100180000F062
:101CB000FBF90FE0FB681B68BA681100180000F020
:101CC0003BFA07E0FB681B68BA681100180000F0D7
:101CD00079FAC046FB68352201219954FB68342209
:101CE0000021995400231800BD4604B080BD0000B7
:101CF00080B584B000AF786039600023FB607B68FA
:101D000034229B5C012B01D10223CAE07B68342280
:101D1000012199547B683522022199547B681B6804
:101D20009B68FB60FB6877229343FB60FB685F4A1C
:101D30001340FB607B681B68FA689A603B681B680D
:101D4000402B00D178E00ED8102B00D18BE003D8C7
:101D5000002B00D180E09BE0202B00D18AE0302BCB
:101D600000D18EE094E0702B17D004D8502B43D0D4
:101D7000602B51D08CE080225201934204D080220B
:101D80009201934224D083E07B681B687A681268D2
:101D9000926807218A439A607AE07B6818683B68FA
:101DA00099683B685A683B68DB6800F0DFFA7B683B
:101DB0001B689B68FB60FB6877229343FB60FB68B2
:101DC00077221343FB607B681B68FA689A605FE0C8
:101DD0007B6818683B6899683B685A683B68DB68B1
:101DE00000F0C4FA7B681B687A68126892688021E8
:101DF000C9010A439A604BE07B6818683B685968E0
:101E00003B68DB681A0000F029FA7B681B685021E8
:101E1000180000F08BFA3BE07B6818683B68596853
:101E20003B68DB681A0000F04BFA7B681B68602196
:101E3000180000F07BFA2BE07B6818683B68596853
:101E40003B68DB681A0000F009FA7B681B684021D8
:101E5000180000F06BFA1BE07B681B68002118007B
:101E600000F064FA14E07B681B681021180000F091
:101E70005DFA0DE07B681B682021180000F056FA1F
:101E800006E07B681B683021180000F04FFAC0465E
:101E90007B683522012199547B68342200219954B2
:101EA00000231800BD4604B080BDC046FF00FFFF00
:101EB00080B582B000AF786039607B6834229B5C6B
:101EC000012B01D1022326E07B68342201219954A1
:101ED0007B683522022199543A687B68110018000A
:101EE00000F087FA7B681B687A681268D268402124
:101EF0008A43DA607B681B687A681268D26808498E
:101F00000A40DA607B683522012199547B683422CB
:101F10000021995400231800BD4602B080BDC04680
:101F2000FFBFFFFF80B582B000AF7860C046BD46FE
:101F300002B080BD80B582B000AF7860C046BD46BB
:101F400002B080BD80B582B000AF7860C046BD46AB
:101F500002B080BD80B582B000AF7860C046BD469B
:101F600002B080BD80B582B000AF7860C046BD468B
:101F700002B080BD80B584B000AF786039600023C6
:101F8000FB607B681B68FB607A688023DB059A42F4
:101F900007D07B68204A934203D07B681F4A934254
:101FA00001D1012300E00023002B08D0FB68702240
:101FB0009343FB603B685B68FA681343FB607A6895
:101FC0008023DB059A4207D07B68134A934203D0F3
:101FD0007B68124A934201D1012300E00023002BC9
:101FE00008D0FB680E4A1340FB603B68DB68FA6868
:101FF0001343FB607B68FA681A603B689A687B68E9
:10200000DA623B681A687B689A627B6801225A61CF
:10201000C046BD4604B080BD000801400014014028
:10202000FFFCFFFF80B586B000AF78603960002309
:102030007B6100233B610023FB607B681B6A0122FC
:1020400093431A007B681A627B681B6A3B617B685A
:102050005B68FB607B689B697B617B697022934353
:102060007B617B69032293437B613B681B687A69D0
:1020700013437B613B69022293433B613B689B684E
:102080003A6913433B617B68FA685A607B687A69F6
:102090009A613B685A687B685A637B683A691A623E
:1020A000C046BD4606B080BD80B586B000AF786042
:1020B000396000237B6100233B610023FB607B6868
:1020C0001B6A102293431A007B681A627B681B6AA2
:1020D0003B617B685B68FB607B689B697B617B69BC
:1020E000134A13407B617B69124A13407B613B6852
:1020F0001B681B027A6913437B613B69202293436F
:102100003B613B689B681B013A6913433B617B68F9
:10211000FA685A607B687A699A613B685A687B689A
:102120009A637B683A691A62C046BD4606B080BDB4
:10213000FF8FFFFFFFFCFFFF80B586B000AF786028
:10214000396000237B6100233B610023FB607B68D7
:102150001B6A1A4A1A407B681A627B681B6A3B61D9
:102160007B685B68FB607B68DB697B617B697022F5
:1021700093437B617B69032293437B613B681B68CC
:102180007A6913437B613B690D4A13403B613B68AD
:102190009B681B023A6913433B617B68FA685A608B
:1021A0007B687A69DA613B685A687B68DA637B68C6
:1021B0003A691A62C046BD4606B080BDFFFEFFFF09
:1021C000FFFDFFFF80B586B000AF78603960002367
:1021D0007B6100233B610023FB607B681B6A1B4A19
:1021E0001A407B681A627B681B6A3B617B685B688C
:1021F000FB607B68DB697B617B69154A13407B610F
:102200007B69144A13407B613B681B681B027A6937
:1022100013437B613B69104A13403B613B689B68F9
:102220001B033A6913433B617B68FA685A607B6819
:102230007A69DA613B685A687B681A647B683A6934
:102240001A62C046BD4606B080BDC046FFEFFFFF24
:10225000FF8FFFFFFFFCFFFFFFDFFFFF80B586B0B2
:1022600000AFF860B9607A6000237B6100233B61B6
:10227000FB681B6A3B61FB681B6A012293431A00DF
:10228000FB681A62FB689B697B617B69F022934360
:102290007B617B681B017A6913437B613B690A227E
:1022A00093433B613A69BB6813433B61FB687A69BE
:1022B0009A61FB683A691A62C046BD4606B080BDA5
:1022C00080B586B000AFF860B9607A6000237B61AA
:1022D00000233B61FB681B6A102293431A00FB68D2
:1022E0001A62FB689B697B61FB681B6A3B617B69C7
:1022F0000D4A13407B617B681B037A6913437B6142
:102300003B69A02293433B61BB681B013A691343BD
:102310003B61FB687A699A61FB683A691A62C04658
:10232000BD4606B080BDC046FF0FFFFF80B584B03C
:1023300000AF78600A00BB1C1A800023FB607B683A
:102340009B68FB60FB6870229343FB60BB1C1B888F
:10235000072213439BB21A00FB681343FB607B68A0
:10236000FA689A60C046BD4604B080BD80B586B0AC
:1023700000AFF860B9607A603B6000237B61FB6866
:102380009B687B617B69094A13407B613B681A0249
:102390007B681A43BB6813437A6913437B61FB680C
:1023A0007A699A60C046BD4606B080BDFF00FFFF57
:1023B00080B586B000AFF860B9607A6000237B61B9
:1023C0000122BB689A4013007B61FB681B6A7A6933
:1023D000D2431A40FB681A62FB681A6A7968BB68C4
:1023E00099400B001A43FB681A62C046BD4606B00E
:1023F00080BD80B586B000AF7860396000237B6116
:1024000000233B610023FB607B681B689B687B614A
:102410007B69702293437B613B685B687A691343F5
:102420007B617B69072293437B613B681B687A6908
:1024300013437B617B681B687A699A603B685B68C1
:10244000302B54D006D8102B53D0202B53D0002B38
:1024500053D053E0502B36D002D8402B10D04DE053
:10246000602B3AD0702B00D048E07B6818683B683E
:10247000D9683B689A683B681B69FFF777FF3DE0C6
:102480007B681B681B6AFB607B681B687A68126844
:10249000126A01218A431A627B681B689B693B614F
:1024A0003B69F02293433B613B681B691B013A691E
:1024B00013433B617B681B683A699A617B681B68C0
:1024C000FA681A621AE07B6818683B6899683B688A
:1024D0001B691A00FFF7C2FE10E07B6818683B68B2
:1024E00099683B681B691A00FFF7EAFE06E0C046E0
:1024F00004E0C04602E0C04600E0C046C046BD461B
:1025000006B080BD80B582B000AF786039607B686E
:1025100034229B5C012B01D1022332E07B68342200
:10252000012199547B683522022199547B681B68EC
:102530007A681268526870218A435A607B681B6807
:102540007A68126851683A6812680A435A607B6870
:102550001B687A681268926880218A439A607B6857
:102560001B687A68126891683A6852680A439A60F0
:102570007B683522012199547B68342200219954CB
:1025800000231800BD4602B080BD000070B50D4E9E
:102590000D4D0024AD1BAD1005D0A300F358013440
:1025A0009847A542F9D100F0C1F8084E084D002423
:1025B000AD1BAD1005D0A300F35801349847A542D8
:1025C000F9D170BD7427000874270008742700082B
:1025D0007C270008034B10B5002B02D0024800F006
:1025E00005F810BD00000000FD25000810B5010031
:1025F00000230022002000F01FF810BD70B5094B29
:10260000094CE41AA41009D0084AA518AD00ED1829
:102610002B68013C9847043D002CF9D100F08CF860
:1026200070BDC0467C27000880270008FFFFFF3FE1
:102630007047C0467047C046F0B54E464546DE4638
:102640005746E0B5364D83B00600286898460F001F
:102650009146FFF7EDFF334B1C68A4235B00E05865
:10266000002852D043681F2B13DC5A1C0192002E05
:1026700028D1019A02339B0042601F502868FFF75F
:10268000D9FF002003B03CBC90469946A246AB4619
:10269000F0BD254B002B3DD0C820400000E000BF1E
:1026A000002837D0A42200235200A15843600160C3
:1026B000A0504032835004328350013301930023F1
:1026C000002ED6D09A00924682444A46882154462B
:1026D0006250C4225200914681444A46873999404B
:1026E00012688B460A4394464A466146116084222A
:1026F00041465200A150022EBBD102005C468D32F1
:10270000FF3211680C431460B3E720004D30FF30F6
:10271000E050A7E72868FFF78DFF01204042B1E7AE
:10272000300400207027000800000000F8B5C04603
:10273000F8BC08BC9E467047F8B5C046F8BC08BC5B
:042740009E467047FA
:102744002E2E2F5372632F6D61696E2E630000006D
:10275400000000000000000001020304060708094D
:10276400030406080C1018203000000008000020A4
:08277400D5250008E90000086A
:04277C00C100000890
:1027800080841E000000000000000000F402002011
:102790005C030020C40300200000000000000000D3
:1027A0000000000000000000000000000000000029
:1027B0000000000000000000000000000000000019
:1027C0000000000000000000000000000000000009
:1027D00000000000000000000000000000000000F9
:1027E00000000000000000000000000000000000E9
:1027F00000000000000000000000000000000000D9
:1028000000000000000000000000000000000000C8
:1028100000000000000000000000000000000000B8
:1028200000000000000000000000000000000000A8
:1028300001000000000000000E33CDAB34126DE645
:10284000ECDE05000B0000000000000000000000AE
:102850000000000000000000000000000000000078
:102860000000000000000000000000000000000068
:102870000000000000000000000000000000000058
:102880000000000000000000000000000000000048
:042BB000C404002039
:0400000508000239B4
:00000001FF
